:2000000000000120A30A0000AF0A0000AF0A0000AF0A0000AF0A0000AF0A00000000000075
:20002000000000000000000000000000AF0A0000AF0A000000000000AF0A0000AF0A0000DC
:20004000AF0A0000AF0A0000AF0A0000AF0A0000AF0A0000AF0A0000AF0A0000AF0A0000D8
:20006000AF0A00004F070000AF0A0000AF0A0000AF0A0000AF0A0000AF0A0000AF0A00001B
:20008000AF0A0000AF0A0000AF0A0000AF0A0000AF0A0000AF0A0000AF0A0000AF0A000098
:2000A000AF0A0000AF0A0000AF0A0000AF0A0000AF0A0000AF0A0000AF0A0000AF0A000078
:2000C000AF0A0000AF0A0000AF0A000091060000AF0A0000AF0A0000AF0A0000AF0A00007A
:0400E000AF0A000063
:2000E400ADF1200DB148006800F4E020000C01900199012088408DF80800AC48006800F0E3
:200104000700009012E1AA48007860B3A94946F65A100860A849086840F001000860A549EC
:2001240001200860A2480078A0B1A448007840B19DF80800A2494FF4FA32B2FBF0F008603E
:2001440006E19DF808009E494FF4FA42B2FBF0F00860FDE09DF8080099494FF40042B2FB2E
:20016400F0F00860F4E09DF8080095494FF40042B2FBF0F00860EBE09DF80800904942F2F5
:200184001072B2FBF0F00860E2E08C48007840B19DF808008A494FF4FA32B2FBF0F0086011
:2001A400D6E09DF8080086494FF4FA42B2FBF0F00860CDE0834800686FF39F20ADF81800E7
:2001C40011E08148059022E0804805901FE0804805901CE07F48059019E07F48059016E06E
:2001E4007E48059013E07748006810F4E020E8D0B0F58030E8D0B0F58030E8D0B0F580305B
:20020400E8D0B0F58030E8D0B0F58030E8D0BDF9180018B905986A49086099E0BDF918006A
:20022400400B05D3BDF9180040F47040ADF818006B48007830B16B48006803906A48006854
:20024400049005E06948006803906948006804900498DDED030AC0F5407000EE100AB8EE42
:20026400C01AB7EE000A01EE200ADDED030ABDF9180001EE100AF2EE001AB8EEC11A20EEA1
:20028400210A61EE200A80EE800A059800EE900AB7EE001AF8EE600A31EE400A80EE800A29
:2002A400BCEEC00A464910EE100A086050E09DF8082049484249B0FBF2F0086048E04D48FC
:2002C400007858B33B4946F65A1008603A49086840F002000860374901200860454800786A
:2002E400A0B13648007840B19DF8080034494FF4FA32B2FBF0F008602AE09DF80800304924
:200304004FF4FA42B2FBF0F0086021E09DF8082032482B49B0FBF2F0086019E09DF808200E
:200324002E482749B0FBF2F0086011E0009800283FF4E9AE401E3FF41FAF401E3FF425AF9F
:20034400401E3FF437AF401EB1D0401EB7D0FFE708B070472849086840F4700008602749AC
:200364004FF4B5400880264980200860114946F65A10086013494FF4803008600B480B497C
:20038400006820F0071040F0030008600949002008601C481B49006820F0300008601A481B
:2003A4001949006820F0300008607047080401400089204200040140500401403C862042DA
:2003C400180000200404014060E31600C0C62D00808D5B00001BB70000366E01006CDC0263
:2003E400D8802042841020006C102000641020004C1020000489204288ED00E00C48004007
:20040400143004E01010014014100140ADF1080D8DF80000664A9DF900009DF90030012184
:2004240000F01F005B09814042F8231002B07047ADF1080D01918DF800009DF90000002826
:200444000BD59DF9001001985A4A01F00F014001091F00F0FF00505407E001989DF90010B2
:20046400554A400100F0FF00505402B07047534946F65A1008605249086840F4807008605B
:200484004E490020086070474E494FF4B5400880704708B54C49002008704C49FF2008705E
:2004A4004B49002008704B49FF2008704A49002008704A49FF2008704949002008704949D0
:2004C400FF2008704849002008704849FF2008704749002008704749FF2008704649002032
:2004E40008704649FF2008704549002008704549FF2008704449002008704449FF200870C6
:200504004349002008704349FF2008704249002008804249FF2008802C49087820F0120014
:2005240008702949087840F0120008703C49087840F0120008703B49087820F01300087035
:200544003949087820F0130008703849087820F0070008703649087820F00700087035495E
:20056400087840F0120008703349087820F0120008703249087840F0120008702320FFF7B9
:2005840045FF23200021FFF753FF08BD08B52C4940F2825008804FF483704FF08041088026
:2005A4000920FFF733FF09200021FFF741FF08BD00E100E018ED00E000E400E000040140F2
:2005C400080401400C480040024C0040044C0040034C0040054C0040224C0040244C00409A
:2005E400234C0040254C0040424C0040444C0040434C0040454C0040624C0040644C00407B
:20060400634C0040654C0040824C0040844C0040834C0040854C0040224D0040244D004058
:20062400064C00400A4C00400C4C00400B4C00400D4C0040184C00401C4C00401A4C0040D4
:2006440012000040ADF1080D8DF80000584A9DF900009DF90030012100F01F005B098140B8
:2006640042F8231002B07047ADF1080D8DF80000504A9DF900009DF90030012100F01F0041
:200684005B09814042F8231002B0704708B54A480078800809D34949087880F00100087035
:2006A4004549087820F00200087043480078400941D332E04249087820F007000870404909
:2006C400087840F0010008703E49022008702DE03B49087820F0070008703949087840F0FA
:2006E400020008703749032008701FE03449087820F0070008703249087840F0040008702F
:2007040030490120087011E02D49087820F0070008702C490120087008E02A480078401E0F
:20072400C8D0401ED4D0401EE0D0EDE72249087820F0100008702320FFF796FF4FF08041E8
:20074400088840F01000088008BD08B506E04FF08041088820F00100088010E01A480088D2
:2007640068B1801E0BD0801E09D0801E07D0801E05D0801E03D0801E01D0801EE7D00E48F9
:200784000078400903D20C480078800805D30A49087820F01200087008E04FF080410888AE
:2007A40020F0100008802320FFF74CFF08BDC04600E100E080E100E01C4C0040024C004006
:2007C400034C00401C0000202E000040002A4AD05FEA000C8B071CD1830722D1102A08D332
:2007E40070B4103A78C978C0103AFBD270BC103238D0042A2CD3082A05D30C2A24BF08C960
:2008040008C008C908C008C908C092072AD0920F22E00B780370491C401C521E22D08B07F9
:20082400F7D1C30714D18307D8D0121F12D308C903801B0C4380001D121FF8D20AE008C9E4
:2008440003701B0A43701B0A83701B0AC370001D121FF4D2121D05D00B780370491C401C0A
:20086400521EF9D1604670471448B0B5B0F1FF3F01D000F0B9F8124D1248A84210D01248EE
:20088400124CA0420CD0001B083CC71054F8080F017855F821206168401C90477F1EF5D139
:2008A40000F006F90A4D0B4CA54205D002E054F8040B8047A542FAD1B0BDC046FFFFFFFFB6
:2008C400D00A0000D80A0000E00A0000D80A00000000000000000000F8B540F6FF7C10F826
:2008E400014B00231DE0122F00F1010008D110F8015B2E0A24BF10F8016B66F3DF15EF1934
:200904008A1A521E12F8015B7F1E01F8015BF9D103E010F8012B01F8012B5B1C6408082B4B
:20092400DDDA6208F5D210F8012B057805F00F071201FF1C42EA25129445D4D1F8BD704794
:200944004EF68851CEF2000108684FF0F00340EA034008600C4885460C4885446F46072026
:200964008743BD460A486F460760FFF7E8FF00F09DF8002801D0FFF777FF00F073F80120F5
:2009840000F00EF8FEE7C04600FE0020000200001400002000BF704708B5FFF7FBFFFEE716
:2009A40038B50D4C0546A06820B10C48B0F1FF3F00D080470A4800688047606810B10146AE
:2009C40028468847206800B18047064800688047FFF7E2FF38BDC04600000020FFFFFFFF6B
:2009E4000C00002010000020F8B506460F4D104F7388002417E0A00000EBC400321851687B
:200A04009068D26852B9AF420BD00A7855F822200346491C08461946904701E0FFF7D6FEDB
:200A24007388641CA4B2A342E5DCF8BDD00A0000D80A000030BF704762B6704708B5FFF7A2
:200A440016FDFFF721FDFFF724FDFFF79FFDFFF7F3FF0349086840F00200086030BFFDE7B1
:200A640010ED00E00449B1F1FF3F07BF0021081C0868091DFFF7E2BFFFFFFFFF0349086080
:200A840070470249091F08607047704710000020D0F80320C31D08461946FFF797BE08B5A2
:120AA400FFF758FCFFF74CBF08BDFEE7012070477047BC
:200AB80000350000040100808F0A003301311FC0C62D0001FFF00000DD080000950A000020
:080AD800B80A00000000002034
:00000001FF
