:020000022000DC
:1030000000000120393202009132020093320200A6
:10301000953202009732020099320200000000004F
:103020000000000000000000000000009B320200D1
:103030009D320200000000009F320200A132020017
:1030400039730200A7320200817F0200AB32020016
:10305000AD320200AF32020009780200B332020042
:103060004D7F0200B7320200B9320200BB320200CB
:10307000BD320200BF320200C1320200C332020080
:10308000C532020069470200C9320200CB32020099
:10309000A9470200CF32020069D40200D3320200F5
:1030A000D5320200D7320200D9320200DB320200F0
:1030B000DD320200DF320200A3320200A33202003E
:1030C000E1320200E3320200E5320200E7320200A0
:0C30D000E9320200EB320200ED32020097
:1030DC00354936480A1A02D0072291438D463449A5
:1030EC0034480A1A06D00722914381F30988022238
:1030FC0082F3148830483149314A00F044F83148A1
:10310C003149324A00F03FF831483249324A00F036
:10311C003AF832483249334A00F035F832483349EC
:10312C00334A00F030F833483349344A00F02BF876
:10313C0033483449344A00F026F8344834490022E4
:10314C0000F02CF833483449002200F027F83348BB
:10315C003349091A082902DB002202604160314A16
:10316C0090471F481F49884205D00268043003B4B9
:10317C00904703BCF7E700208646EC460020002170
:10318C00294A9047FEE7884207D0521A05D00378A7
:10319C0001300B700131013AF9D17047884202D0ED
:1031AC0002700130FAE770470000012000F800209F
:1031BC00000001200000012084E7020060210020B3
:1031CC0074210020F0320200F0320200F6D6020028
:1031DC0084E70200602100206021002018D8020042
:1031EC0018D8020018D8020018D8020018D802000B
:1031FC0018D8020018D8020018D8020084E7020080
:10320C0098E7020074210020742100207421002012
:10321C00D72B0020D82B0020D82B0020D82B002017
:10322C00D82D00205D320200D97C02000F484FF0EF
:10323C000701884385460E4880470E48016841F4D3
:10324C0070010160BFF34F8FBFF36F8FFFF740BF6B
:10325C0009480A490A4A884207D0521A05D003780D
:10326C0001300B700131013AF9D170470000012097
:10327C0001C9020088ED00E098D70200E020002090
:10328C0060210020FEE7FEE7FEE7FEE7FEE7FEE733
:10329C00FEE7FEE7FEE7FEE7FEE7FEE7FEE7FEE7FA
:1032AC00FEE7FEE7FEE7FEE7FEE7FEE7FEE7FEE7EA
:1032BC00FEE7FEE7FEE7FEE7FEE7FEE7FEE7FEE7DA
:1032CC00FEE7FEE7FEE7FEE7FEE7FEE7FEE7FEE7CA
:1032DC00FEE7FEE7FEE7FEE7FEE7FEE7FEE7FEE7BA
:0432EC00FEE700BF3A
:1032F00000B583B001900091019B1B681B68009989
:103300000198984700BF03B05DF804FB00B583B097
:103310000190019B1B685B680198984700BF03B050
:103320005DF804FB82B00190019B01225A7200BF3C
:1033300002B0704782B00190019B5B7A184602B0E0
:10334000704710B487B001900091019B009A53E838
:10335000004F44EA020043E8000191F0000FF6D16B
:10336000059404900391049B184607B05DF8044B44
:10337000704710B487B001900091019B009A53E808
:10338000004F04EA020043E8000191F0000FF6D17B
:10339000059404900391059B184607B05DF8044B13
:1033A000704700B583B0019001210198FFF7C9FF74
:1033B0000346184603B05DF804FB00B583B00190E6
:1033C00000210198FFF7D5FF0346184603B05DF8CA
:1033D00004FB0000024A034BD31ADB08184670476F
:1033E00070D7020028D7020000B589B04148FFF726
:1033F000D8FF4148FFF7D5FF404B5B6807933F4B31
:103400009B680493079A049B134002339B003B4A3A
:103410001344043306931BE0079B01330793069B79
:103420005B88C3F389139BB21A46069B1B88C3F3C0
:1034300089139BB213441A46079B13440793079AB8
:10344000049B134002339B002C4A1344043306931D
:10345000069B1B7803F00303DBB2002BDCD00023B8
:10346000059311E0079B5A1C0792049A1340059A92
:10347000920069460A44214902339B000B445B6871
:103480001360059B01330593059B012BEAD99DF839
:103490000030C3F30103DBB2012B0CD0022B14D19B
:1034A000BDF80230C3F389139BB203339B08079A1C
:1034B000134407930FE0BDF80030C3F38313DBB26E
:1034C0001A46079B1344079305E00D4940F24D103F
:1034D00002F073FE00BF0848FFF76FFF0390039BE5
:1034E000002B02D0054A079B536000BF09B05DF86E
:1034F00004FB00BF5C260020582600204422002048
:103500003CD8020010B586B003900291019200935E
:10351000039B1B0CADF81630BDF81640FFF75AFFA1
:1035200003469C4204D323494FF4B27002F045FE97
:10353000009B5A1C089B1340BDF816201E490233FD
:103540009B000B445A60009A089B134002339B0077
:10355000194A134404330493039B1B0903F001032A
:10356000D9B2049A137861F382031370039B03F0BA
:103570000703D9B2049A137861F3C5031370019B52
:1035800003F00F03D9B2049A138861F389131380EF
:10359000029BC3F31501049A136861F39F23136020
:1035A000049A1378012161F30103137000BF06B080
:1035B00010BD00BF3CD802004422002000B58BB0F3
:1035C00001900091019B023308930223079301238A
:1035D0008DF81B3000238DF80F300DF10F031846C6
:1035E00001F0B0F9214B1A68009B1A601F4B9A68D2
:1035F0001E4B59681D4B1B68CB1A134401330993AA
:10360000089A079B134405930BE0FFF7EDFE174B59
:103610009A68164B5968154B1B68CB1A1344013333
:103620000993059A099B9A42EFD8104B1A680F4BE1
:103630009B68134002339B000C4A134404330493E9
:10364000049A137843F003031370084B1A68089B1D
:103650001344064A13609DF80F30184601F088F9AC
:103660009DF81B3018460BB05DF804FB4422002087
:1036700000B58BB005900491039202931F4B9B6899
:10368000079306AB19460298FFF798FF0346002BF5
:1036900024D0069B023309930023089311E0089B72
:1036A0009B00039A1A44099B591C099107990B40E6
:1036B0001268124902339B000B445A60089B013385
:1036C0000893089A029B9A42E9D3069A079B0093B3
:1036D0001346029A04990598FFF714FF074B93F8D5
:1036E0001C34002B05D000BF00F064F80346002B0B
:1036F000FAD100BF0BB05DF804FB00BF44220020EC
:1037000000B583B001900091002300220099019838
:10371000FFF7AEFF00BF03B05DF804FB00B587B054
:10372000039002910192019B059305AA012302993E
:103730000398FFF79DFF00BF07B05DF804FB00B5DD
:1037400087B00390029101920093019B0493009B28
:10375000059304AA022302990398FFF789FF00BF8B
:1037600007B05DF804FB00B589B0039002910192A7
:103770000093019B0493009B05930A9B06930B9B6C
:10378000079304AA042302990398FFF771FF00BF6F
:1037900009B05DF804FB0000054B5A68044B1B6838
:1037A0009A420CBF01230023DBB21846704700BFCA
:1037B0004422002000B599B0FFF7EEFF0346002B2E
:1037C00001D00023B3E19C4B0022C3F81824BFF3BF
:1037D0004F8F00BF984B5B681793974B9B68109374
:1037E000179A109B134002339B00934A13440433EF
:1037F0001693002315930023149300230F931BE0CB
:10380000179B01331793169B5B88C3F389139BB2F5
:103810001A46169B1B88C3F389139BB213441A469E
:10382000179B13441793179A109B134002339B0066
:10383000814A134404331693169B1B7803F0030349
:10384000DBB2002BDCD00023139311E0179B5A1C32
:103850001792109A1340139A920002A90A447649CB
:1038600002339B000B445B681360139B013313937B
:10387000139B012BEAD99DF8083003F00303DBB258
:10388000022B40F09C80BDF80A30C3F389139BB231
:103890000D93BDF80A30C3F389139BB2502B28BF98
:1038A00050239BB20C930C9BC3F309039AB2BDF84F
:1038B0000A3062F38F13ADF80A300C9B08330B9378
:1038C0009DF80830C3F3C203DBB20F930B995B483A
:1038D00003F0CCF81590159B002B00F0E0801598B4
:1038E00003F055F902A9149B0822159803F0FAF980
:1038F000149B08331493179BDA43109B1340013336
:103900009B000A930C9A0A9B9A4242D90A9B002B6D
:1039100008D0179A109B134002339B00464A134469
:10392000043300E0464B08930A9B002B02D00A9B0D
:10393000DBB201E00C9BDBB28DF81F300A9B002B41
:1039400001D03F4B00E0002306930A9B002B06D0DA
:103950000C9BDAB20A9BDBB2D31ADBB200E0002385
:103960008DF817309DF81F20149B0899159803F0C7
:10397000B9F99DF81F30149A13441493069B002B39
:1039800016D09DF81720149B0699159803F0AAF9F4
:103990000EE0179A109B134002339B00264A1344F3
:1039A00004330993149B0C9A0999159803F09AF91A
:1039B0000D9B03339B08179A134417936FE09DF8F0
:1039C000083003F00303DBB2012B5AD1BDF80830F5
:1039D000C3F38313DBB2062B28BF0623DAB2BDF88C
:1039E000083062F38913ADF80830BDF80830C3F32E
:1039F0008313DBB202330E939DF80830C3F3C20386
:103A0000DBB20F930E9B9B0019460C4803F02EF877
:103A10001590159B002B42D0159803F0B8F802A919
:103A2000149B0822159803F05DF9149B0833149336
:103A3000002313931BE000BF4422002018D802008B
:103A400050220020179B5A1C1792109A13400233E1
:103A50009B00394A1344191D149B0422159803F046
:103A600041F9149B04331493139B01331393BDF852
:103A70000830C3F38313DBB21A46139B9342E1D39E
:103A80000DE09DF8083003F00303DBB2032B06D1F1
:103A9000294BD3F81834002B01D1002347E0159BA4
:103AA000002B3ED0244BD3F810341293224BD3F882
:103AB0001834002B1AD0159803F078F831E0002361
:103AC0008DF847301298FFF735FC0346002B02D0E3
:103AD00001238DF847309DF84730002B03D015990E
:103AE0001298FFF705FC129B5B681293129B002B48
:103AF000E5D1159803F05AF800238DF807300DF141
:103B00000703184600F01EFF0B4BD3F81834002BA8
:103B100002D1094A179B53609DF80730184600F000
:103B200027FFFFF739FE034683F00103DBB2184697
:103B300019B05DF804FB00BF4422002000B583B03B
:103B40000C4BD3F8103401930A4B012283F81C2448
:103B500008E00198FFF7E6FB0198FFF7D7FB019B10
:103B60005B680193019B002BF3D100BF00BF03B042
:103B70005DF804FB4422002000B589B00390029157
:103B80000192029B9BB2ADF81430019B0693039BFC
:103B9000079305AB1A46002144F2010000F052F8E9
:103BA00000BF09B05DF804FB86B00390029101925A
:103BB00001238DF817309DF81730214A039B1360BD
:103BC0001F4A029B53601E4A019B9360039B44F271
:103BD0000102934213D0039B44F20202934222D18A
:103BE000019B174AD360164BDB681B881A46144B9F
:103BF0009A61134BDB685B68114AD36113E0019B48
:103C00000F4A13610E4B1B699B680D4A53610C4BA5
:103C10001B691B881A460A4B9A61094B1B695B6832
:103C2000074AD36100BF72B600BF00BF9DF81730CE
:103C3000DBB2002BFAD162B600BF00BF06B07047FE
:103C40006426002030B589B0059004910392FFF7F7
:103C500075FF00BFFFF7AEFD0346002BFAD1059BB1
:103C600044F2020293422BD0059B44F2020293429B
:103C700054D8059B44F20102934231D0059B44F293
:103C8000010293424AD8059B012B05D0059B41F2C6
:103C9000010293420AD041E02D4B1B881B0443F0E4
:103CA00001032C491846FFF72BFD42E0284B1B88E7
:103CB0001B0443F0010328491846FFF721FD38E0B3
:103CC000039B0793224B1B881B0443F00100079BB7
:103CD0005B681A46079B1B882049FFF730FD28E0E8
:103CE000039B06931A4B1B881B0443F00104069B9D
:103CF0009D68069B9B68184603F062F803461946C8
:103D0000069B5B681A46069B1B88019300920B4634
:103D10002A4613492046FFF726FD0AE00C4B1B8874
:103D20001B0443F00103049A0E491846FFF7F6FC02
:103D300000BF0D4B1B6803F00103002B00D0FFDE1A
:103D4000039A04990598FFF72FFF00BF09B030BD13
:103D5000E0200020A4D80200C4D80200E8D8020065
:103D600004D902001CD90200F0ED00E082B0034645
:103D70008DF807309DF8073003F01F0205499DF9C3
:103D800007305B09012000FA02F241F8232000BF4E
:103D900002B0704700E100E082B003468DF80730C2
:103DA0009DF8073003F01F0206499DF907305B09B3
:103DB000012000FA02F2203341F8232000BF02B0B4
:103DC000704700BF00E100E082B003468DF8073085
:103DD0009DF8073003F01F0206499DF907305B0983
:103DE000012000FA02F2403341F8232000BF02B064
:103DF000704700BF00E100E082B003468DF8073055
:103E00009DF8073003F01F0206499DF907305B0952
:103E1000012000FA02F2603341F8232000BF02B013
:103E2000704700BF00E100E084B00190244B039391
:103E3000019B002B40D0234B1A680399019B00BFC4
:103E400000BF00BF00BF00BF00BF00BF00BF8A426D
:103E50002FD000BF00BF00BF00BF00BF00BF00BF2A
:103E600000BF00BF00BF00BF00BF00BF00BF00BF5A
:103E700000BF00BF00BF00BF00BF00BF00BF00BF4A
:103E800000BF00BF00BF00BF00BF00BF00BF00BF3A
:103E900000BF00BF00BF00BF00BF00BF00BF00BF2A
:103EA00000BF00BF00BF00BF00BF00BF00BF00BF1A
:103EB00000BF013BC3D1019300BF04B0704700BFF6
:103EC0000024F4007021002008B50D4B4FF480321F
:103ED000C3F844230A4B4FF48032C3F80423112063
:103EE000FFF78AFF1120FFF741FF054B01221A60FF
:103EF0002F20FFF799FF034B01221A7000BF08BD66
:103F000000100140A227002008B51120FFF744FF50
:103F10000E4B4FF48032C3F848230C4B4FF48032E1
:103F2000C3F80823094B01225A602F20FFF77CFFBA
:103F3000064B01229A60064B00221A602F20FFF7E1
:103F400073FF044B00221A7000BF08BD001001402F
:103F500094270020A2270020024BD3F804351846EE
:103F6000704700BF0010014082B001900091019A9B
:103F7000009BD31A23F07F43184602B0704700001D
:103F800082B00190034A019BC2F8403500BF02B0E5
:103F9000704700BF0010014086B00190284B1B689D
:103FA000002B03D1264A019B136045E0019B1A6850
:103FB000234B1B681B689A4210D8214B1B68196859
:103FC000019B1A681E4B1B688A1A1A601C4B1A68E0
:103FD000019BDA611A4A019B13602DE0019B1B686B
:103FE0000393174B1B680593154B1B68049309E05B
:103FF000049B1B68039AD31A0393049B0593049BA9
:10400000DB690493049B002B04D0049B1B68039A78
:104010009A42EDD8049B002B05D0049B1A68039BA1
:10402000D21A049B1A60019B039A1A60019B049A9E
:10403000DA61059B019ADA6100BF06B0704700BFE4
:104040009027002000B587B001902A4B1B6803938E
:10405000284B1B680593059B049308E0049A019B79
:104060009A4208D0049B0593049BDB690493049B4C
:10407000002BF3D100E000BF049B002B01D10023F3
:1040800033E0059A049B9A4214D11A4B1B68DB69F2
:10409000184A1360174B1B68002B0BD1164B0122DB
:1040A0009A60164B00221A60154B01221A702F20BD
:1040B000FFF7BAFE049B1B680293049BDA69059B19
:1040C000DA61059BDB690493049B002B05D0049BFC
:1040D0001A68029B1A44049B1A60064B1B68039AD9
:1040E0009A4214BF01230023DBB2184607B05DF8E3
:1040F00004FB00BF902700200010014094270020FF
:10410000A327002008B51120FFF75EFE00BF08BD01
:1041100008B51420FFF758FE00BF08BD00B583B0F6
:104120000190019B5B69019A92691046984700BF14
:1041300003B05DF804FB000000B585B02B4B1B6895
:10414000002B4ED000230193FFF706FF0246284BB9
:104150001B6819461046FFF707FF0290234B1B68A8
:1041600003931DE0039B1B68029A9A421CD3039B96
:104170001B68029AD31A0293039B1B68019A13448B
:104180000193039B0093039BDB690393009B1B7CC0
:10419000002B05D0009B00221A740098FFF7BEFF89
:1041A000039B002BDED100E000BF124B1A78124BAC
:1041B0001B789A420CD1104B1B780133DAB20E4BAC
:1041C0001A700D4B1B78022B02D10B4B00221A7078
:1041D000094B1B781946094A019B42F82130FFF729
:1041E00097FF00BF05B05DF804FB00BF90270020DB
:1041F00094270020A0270020A12700209827002036
:1042000082B00190184B1A78184B1B789A4223D031
:10421000154B1B780133DAB2134B1A70124B1B7813
:10422000022B02D1104B00221A700F4B1B781A463A
:104230000F4B53F82220019B1A60019B1A680D4B0B
:104240001B6813440B4A13600A4B1B6823F07F431F
:10425000084A1360012303E0019B00221A60002337
:10426000184602B0704700BFA0270020A1270020F9
:10427000982700209427002088B003900291019293
:104280000023079338E0204B1B680693069B1B68AE
:10429000039A9A4206D2069B1A68039BD21A069B7F
:1042A0001A602EE0069B1B68039AD31A0393069BA1
:1042B0001B68079A13440793069B00221A60124B4F
:1042C0001B680593069BDB690F4A1360069BDB683E
:1042D000002B11D0029A079B134423F07F42069BC8
:1042E0005A60069BDA68069B9A60019B1A68069BD7
:1042F000DA61019B059A1A60034B1B68002BC2D13F
:1043000000BF00BF08B070479027002000B589B0FB
:10431000019000238DF81F30664B1B680593AAE0BF
:10432000019B002B05D0019B0693069BDB69019343
:1043300061E0614B1B781A4613465B001344DB00B7
:104340005D4A1344043304935B4B1B780133DAB2A8
:10435000594B1A70584B1A78574B9B789A4202D196
:10436000554B00221A70049B5B680693049B1B78D4
:10437000032B1ED0032B7EDC012B1FD0022B7AD106
:10438000049B5B681846FFF75DFE0346002B02D0D6
:1043900001238DF81F30069B00221A746BE0454BF9
:1043A0001B680393039B00221A74039BDB69414A39
:1043B0001360404B1B68002BF1D15CE000BF069BF3
:1043C0001B7C002B00D056E0049B9A68069B5A6029
:1043D000049BDA68069B9A60049B1A69069BDA6064
:1043E000049B5A69069B9A61344B1B78002B02D0C0
:1043F000069B00225A60069B5A68314B1B68D31AF1
:1044000023F07F432F4A93420ED8069B5B682C4AC9
:10441000126811461846FFF7A7FD0246069B9B68E7
:104420001A44069B1A6017E0254B1A68069B5B68C6
:1044300019461046FFF798FD0290069B9B68029A6A
:104440009A4206D2069B9A68029BD21A069B1A6071
:1044500002E0069B00221A60069B00225A60069B1F
:1044600000229A60069B01221A74069B0022DA61E0
:104470000698FFF791FD019B002B7FF451AF0E4B87
:104480001A780D4B5B789A427FF44AAF9DF81F3043
:10449000002B04D1074B1B68059A9A4201D00123D7
:1044A00000E0002303F00103DBB2184609B05DF819
:1044B00004FB00BF9027002084260020A3270020B3
:1044C00094270020FEFF7F0010B588B00190274B95
:1044D0001B68002B44D0254B1B681B680793FFF714
:1044E0003BFD0690224B1B68059305990698FFF744
:1044F0003BFD0346033304931E4B1B7883F00103FB
:10450000DBB2002B01D0FFF7DFFC049A079B93423C
:1045100038BF1346059A13440593059B23F07F4348
:1045200005930598FFF72CFDFFF716FD03900699FC
:104530000398FFF719FD0346DC1C06990598FFF761
:1045400013FD03469C420DD9FFF706FD03461846AE
:10455000FFF716FD2F20FFF767FCFFF7D3FD01E003
:10456000FFF7D2FC00BF08B010BD00BF90270020AD
:1045700094270020A227002000B587B000230193D4
:1045800000238DF81730194B1B680493184B1B68D8
:1045900003936B461846FFF733FE03468DF80B3046
:1045A0009DF80B30002B08D0009B01AA04991846F7
:1045B000FFF762FE01238DF81730019B1846FFF7C5
:1045C000A5FE0346002B02D001238DF817309DF87D
:1045D0001730002B02D00398FFF776FF054B00221F
:1045E0001A7000BF07B05DF804FB00BF94270020DD
:1045F00090270020A327002082B003468DF80730C3
:10460000034A9DF80730537000BF02B0704700BFE7
:104610008426002084B00190144B5B7801338DF820
:104620000F30124B9B789DF80F209A4202D1002345
:104630008DF80F300D4B1B789DF80F209A4201D159
:1046400000230FE0019B9DF80F201A70074B5B7849
:104650001A4613465B001344DB00044A1344043338
:104660000293029B184604B0704700BF84260020C6
:1046700000B589B003900291019200930023079343
:1046800000238DF816300DF11603184600F05AF984
:104690000DF117031846FFF7BDFF0690069B002B90
:1046A00002D10423079318E0069B01221A70069B8F
:1046B000039A5A60FFF750FC0246069B9A60069BDD
:1046C000029ADA60069B019A1A61069B009A5A6167
:1046D0009DF817301846FFF78FFF9DF816301846E3
:1046E00000F046F9079B002B01D1FFF711FD079B56
:1046F000184609B05DF804FB00B587B001900B4681
:104700008DF803300023059300238DF80E300DF152
:104710000E03184600F016F90DF10F031846FFF7C7
:1047200079FF0490049B002B02D1042305930BE036
:10473000049B9DF803201A70049B019A5A609DF80F
:104740000F301846FFF758FF9DF80E30184600F05E
:104750000FF9059B002B01D1FFF7DAFC059B1846EA
:1047600007B05DF804FB000008B50E4B0022C3F84B
:1047700040210C4B0022C3F844210A4B0022C3F80D
:104780004821084B0022C3F84C21064B0022C3F8F5
:104790000021044B0022C3F80421FFF7CDFC00BF29
:1047A00008BD00BF0010014008B5FFF7E5FE00BFDF
:1047B00008BD000000B587B0039002910192039BF1
:1047C0000593144B9B78002B01D108231EE0039B1B
:1047D000002B01D1082319E0029B042B01D80723E9
:1047E00014E0059B5B69002B01D108230EE0059BBB
:1047F0005B7C012B01D1029B00E000230493019B11
:10480000049A02990598FFF733FF0346184607B04C
:104810005DF804FB8426002000B585B00190019B63
:1048200003930D4B9B78002B01D1082310E0019BD3
:10483000002B03D0039B5B69002B01D1082307E009
:10484000039B00221A7402210398FFF755FF0346C9
:10485000184605B05DF804FB8426002082B0EFF313
:1048600010830093009B019372B600BF019B184612
:1048700002B0704762B600BF00BF704700B585B098
:104880000190FFF7EBFF0390164B9B68002B1BD1A9
:10489000144B01229A60144BD3F88020134B134021
:1048A000104A1360104B114AC3F880200E4BD3F806
:1048B00084300C4A53600C4B4FF0FF32C3F8842015
:1048C000019B00221A7002E0019B01221A70039BD7
:1048D000002B01D1FFF7CEFF0023184605B05DF88D
:1048E00004FB00BFA427002000E100E0FC06FFBDA0
:1048F00000B585B003468DF80730104B9B68002B40
:1049000016D09DF80730002B12D1FFF7A7FF0390B8
:104910000B4A0A4B1B681360094A084B5B685360DB
:10492000064B00229A60039B002B01D1FFF7A2FFE8
:104930000023184605B05DF804FB00BFA427002043
:1049400000E100E000B583B0019000F02BF80346D1
:10495000012B03D00549432001F02FFC0198FFF7FC
:104960008DFF00BF03B05DF804FB00BF34D9020027
:1049700000B583B003468DF8073000F013F8034606
:10498000012B03D00649512001F017FC9DF8073098
:104990001846FFF7ADFF00BF03B05DF804FB00BF92
:1049A00034D9020084B0EFF305830193019BC3F374
:1049B00008030393039B002B0DD1EFF314830093A3
:1049C000009B0293029B03F00103002B0CBF012309
:1049D0000023DBB200E00123184604B0704782B028
:1049E0000190019B03F00303002B0CBF0123002364
:1049F000DBB2184602B0704710B487B00190009146
:104A0000019B009A53E8004F04EB020043E80001C9
:104A100091F0000FF6D1059404900391059B184680
:104A200007B05DF8044B704710B487B00190009157
:104A3000019B009A53E8004F04EB020043E8000199
:104A400091F0000FF6D1059404900391049B184651
:104A500007B05DF8044B704710B487B00190009127
:104A6000019B009A53E8004FA4EB020043E80001C9
:104A700091F0000FF6D1059404900391049B184621
:104A800007B05DF8044B704700B585B00190002376
:104A900003930EE00B4A039B52F82330002B05D002
:104AA000084A039B52F8233001989847039B01332F
:104AB0000393039B032BEDD900BF00BF05B05DF846
:104AC00004FB00BFBC27002082B001900091019B35
:104AD0001B78013B052B61D801A252F823F000BFDF
:104AE000F94A0200014B0200274B0200594B020019
:104AF000794B0200954B0200009B00221A704EE099
:104B0000009B01221A70019B1A89009B9A81019BCC
:104B10009A88009BDA81019BDA68009B9A60009B6F
:104B200000221A743BE0009B02221A70019B1A8932
:104B3000009B9A81019B9A88009BDA81019BDA682D
:104B4000009B9A60019B9B7D062B0CBF01230023D9
:104B5000DAB2009B1A7422E0009B03221A70019BB8
:104B6000DA88009B9A81019B1A89009BDA81019B5C
:104B7000DA68009B9A6012E0009B04221A70019B85
:104B8000DA88009B9A81009B0022DA81009B002238
:104B90009A6004E0009B05221A7000E000BF00BF8D
:104BA00002B0704784B001900091019B0393039A77
:104BB000009B9A4206D2039B1B68B3F1FF3F01D0D2
:104BC000012300E0002303F00103DBB2184604B028
:104BD000704782B00190019B5B8803339B00019A70
:104BE0001344184602B0704700B583B0019000919D
:104BF0000198FFF7EEFF0246009B934201D2022389
:104C00000CE0019B9B884FF6FF72934203D0019BFF
:104C10001B88002B01D1012300E00023184603B0BC
:104C20005DF804FB00B583B00190019B002B13D00D
:104C30000D4BDB681A46019B93420DD30A4B1B694F
:104C40001A46019B934207D80198FFF7C8FE034616
:104C5000002B01D0012300E0002303F00103DBB2AD
:104C6000184603B05DF804FB4C21002082B00346D7
:104C70000A46ADF806301346ADF80430BDF80620FC
:104C8000134913469B0013449B000B4408331A88B6
:104C9000BDF804301344ADF80430BDF806200C49CB
:104CA00013469B0013449B000B440A331A88BDF83B
:104CB00004301344ADF80430BDF8043040F2FF3244
:104CC000934294BF01230023DBB2184602B0704721
:104CD000E027002084B0019000910A230393002371
:104CE000ADF80A3027E0BDF80A20174913469B00AB
:104CF00013449B000B4404331B68009A9A4215D955
:104D0000BDF80A20104913469B0013449B000B4436
:104D100004331B6803F58053009A9A4206D200239D
:104D20000393019BBDF80A201A8008E0BDF80A3001
:104D30000133ADF80A30BDF80A30012BD3D9039BFB
:104D4000184604B0704700BFE027002082B00190F1
:104D50000B46ADF80230019B1A89BDF802301344AE
:104D60009BB203339AB2019B1A81019B5A89BDF809
:104D70000230D31A9BB2033B9AB2019B5A8100BF07
:104D800002B0704700B583B0074B1B68194600237B
:104D900000930823054A064801F0A4FB0346184681
:104DA00003B05DF804FB00BF08280020D8D902003A
:104DB0004C21002000B585B0039003990023009397
:104DC0000823044A044801F08DFB0346184605B049
:104DD0005DF804FBE0D902004C21002000B585B04D
:104DE00003460091ADF8063000238DF80F30BDF872
:104DF00006300333ADF80A30BDF80A3040F2FD3218
:104E0000934201D909234AE00023ADF80C303BE07E
:104E1000BDF80C20244913469B0013449B000B440F
:104E20001B78002B2BD1BDF80A20BDF80C301146A1
:104E30001846FFF71BFF0346002B20D001238DF8F7
:104E40000F30009BBDF80C201A80BDF80C201649CD
:104E500013469B0013449B000B440A331988BDF88A
:104E60000C20BDF80A300B4498B20F4913469B0042
:104E700013449B000B440A3302461A8008E0BDF835
:104E80000C300133ADF80C30BDF80C30012BBFD91C
:104E90009DF80F30002B01D0002300E007231846B7
:104EA00005B05DF804FB00BFE027002082B0034698
:104EB0000A46ADF806301346ADF80430BDF80420BC
:104EC0000D4913469B0013449B000B440A331A8878
:104ED000BDF80630D31A9BB2BDF80420033B98B24C
:104EE000054913469B0013449B000B440A330246BA
:104EF0001A8000BF02B07047E027002008B50121EA
:104F00000248FFF791FD0346184608BDCC27002054
:104F100000B585B003460091ADF80630BDF8062017
:104F2000244913469B0013449B000B4404331B6825
:104F300003F580530293009B1B680393039B002B94
:104F400004D00398FFF745FE039026E0BDF8062045
:104F5000184913469B0013449B000B4404331B6801
:104F60000833039319E002990398FFF73DFE0346C7
:104F7000022B10D0022B10DC002B02D0012B05D00D
:104F80000BE0009B039A1A6001230EE00398FFF7E1
:104F900020FE039001E0002307E002990398FFF749
:104FA00001FE0346002BDED10023184605B05DF854
:104FB00004FB00BFE027002000B585B00190009100
:104FC000019B5B681846FFF72DFE0346002B19D0A6
:104FD000019B1A89244B1B899A4213D1019B1A68A1
:104FE000019B5B689B689A420CD1019B5B681946E8
:104FF0000098FFF76FFE0346002B0CBF0123002330
:10500000DBB22CE0009B00221A8023E000230293F5
:1050100010E0029B0393039B9A68019B1B689A42D2
:1050200008D1029A019B5A600F4B1A89019B1A8181
:10503000012314E0009B1B8802AA11461846FFF7C3
:1050400067FF0346002BE4D1009B1B8801339AB213
:10505000009B1A80009B1B88012BD7D90023184680
:1050600005B05DF804FB00BF1028002000B587B034
:105070000390029101920093304B1B78DBB283F0D6
:105080000103DBB2002B01D0022353E0019B002B74
:1050900002D0009B002B48D105234BE0009B9B884E
:1050A0001946274A0B469B000B449B0013441B7870
:1050B000002B33D124E0009B1B680593039B002B3E
:1050C00006D0059B9A88039B1B889A4200D017E064
:1050D000029B002B06D0059B1A88029B1B889A42D4
:1050E00000D00DE0059B9A68019B1A60009B1A682E
:1050F000019B5A60134B1A89019B1A81002319E006
:10510000009B9B88009A11461846FFF701FF034653
:10511000002BD0D1009B00221A6000E000BF009B52
:105120009B8801339AB2009B9A80009B9B88012B3D
:10513000B4D90A23184607B05DF804FBB027002055
:10514000E02700201028002000B585B00190084B12
:105150000199184601F0BDF803901C220021039824
:1051600008F096FA039B184605B05DF804FB00BFF3
:10517000D027002000B583B00190044B0199184658
:1051800001F0BEF800BF03B05DF804FBD02700209B
:1051900000B583B00190054B0199184601F0C4F8A1
:1051A0000346184603B05DF804FB00BFD02700207B
:1051B00000B583B00190044B0199184601F0CBF87B
:1051C00000BF03B05DF804FBD027002008B50A4BF0
:1051D0001B68002B04D1094940F2712000F0EDFF5B
:1051E00001210548FFF738FC0346002B14BF0123BB
:1051F0000023DBB2184608BDB82700208CD9020076
:1052000000B587B003900291039B02229A75029920
:10521000039B1A1D002300930423074801F062F941
:105220000590059B002B01D1002300E00E231846BA
:1052300007B05DF804FB00BF4C21002000B587B02B
:1052400003900291039B1B69002B01D0032200E015
:105250000122039B9A75029B08331946039B03F1B5
:105260000C02002300930423064801F03BF905904B
:10527000059B002B01D1002300E00E23184607B048
:105280005DF804FB4C21002000B587B0039002912B
:10529000039B1B78032B01D1052200E00622039B10
:1052A0009A75029B04331946039B03F108020023FD
:1052B00000930423064801F015F90590059B002B87
:1052C00001D1002300E00E23184607B05DF804FB6F
:1052D0004C21002000B587B003900B46ADF80A3092
:1052E00003990023009304230C4A0D4801F0FAF8B7
:1052F0000590059B002B01D00E230BE0BDF80A2082
:10530000084913469B0013449B000B4410330122B1
:105310001A700023184607B05DF804FBE8D90200B4
:105320004C210020E027002000B589B0019002AB9D
:1053300000221A605A609A60019BDB6802930DF1AB
:10534000160202AB11461846FFF736FE0346002B45
:1053500012D0039B0693069B9A88019BDA80069BDA
:105360001A88019B1A81039BBDF816201146184626
:10537000FFF7B0FF079001E00A230793079B184649
:1053800009B05DF804FB000000B587B00190019BF7
:10539000981D02AA0D4B0021FFF768FE0590059BA2
:1053A000002B08D1039B094A928811461846FFF743
:1053B00091FF059004E008220021044808F068F9F4
:1053C000059B184607B05DF804FB00BF20280020AD
:1053D00000B587B003900291039B01229A75029B4E
:1053E0000C331846039B1A69039BDB889B00002142
:1053F00000910146064801F075F80590059B002BC9
:1054000001D1002300E00E23184607B05DF804FB2D
:105410004C21002082B0184B1B8901339AB2164BE5
:105420001A81154B00225A80134B00221A73002355
:10543000ADF8063018E0BDF80620104913469B0071
:1054400013449B000B441A78BDF80630002A0CBFA9
:1054500001220022D1B2084A13440A469A72BDF8CA
:1054600006300133ADF80630BDF80630012BE2D925
:1054700000BF00BF02B0704710280020E0270020C6
:1054800084B0019000238DF80F300023ADF80C306C
:1054900031E0BDF80C301C4A13449B7A002B25D018
:1054A000BDF80C30184A134400229A72BDF80C2043
:1054B000164913469B0013449B000B440C331B6896
:1054C000002B13D1BDF80C20104913469B00134448
:1054D0009B000B4410331B78002B07D0019BBDF8B9
:1054E0000C201A8001238DF80F3008E0BDF80C3035
:1054F0000133ADF80C30BDF80C30012BC9D99DF843
:105500000F30184604B0704710280020E027002014
:1055100008B5084B05221A70074B02229A80064BE9
:105520001B68194600230122044801F02DF80346A8
:10553000184608BD10280020082800204C21002013
:1055400000B583B0164B5B88ADF80230BDF8022081
:10555000144913469B0013449B000B440C331B68F7
:10556000002B14D10E4B04221A70BDF802200D49F5
:1055700013469B0013449B000B4404331B681946DD
:1055800000230122084800F0FFFF019002E0FFF72E
:10559000BFFF0190019B184603B05DF804FB00BFFC
:1055A00010280020E02700204C21002000B587B003
:1055B000104B5B680593104B1A680F4B9B889B0040
:1055C00013440493059B5B880333ADF80E30094BFD
:1055D00003221A700499074B5A68BDF80E309B00DD
:1055E00000200090054800F07DFF0346184607B0F4
:1055F0005DF804FB10280020082800204C21002022
:1056000000B583B00A4B5B880A491846FFF780FC57
:105610000346002B03D0FFF7C9FF019002E0FFF71C
:105620008FFF0190019B184603B05DF804FB00BF9B
:10563000102800201428002008B50A4B06221A70F2
:10564000084B5B881946084A0B469B000B449B009D
:10565000134404331B681846FFF7ACFB0346184697
:1056600008BD00BF10280020E027002008B5054B2A
:1056700007221A70034B00225A60FFF783FB034690
:10568000184608BD1028002008B50D48FFF7F8FEA1
:10569000034683F00103DBB2002B0BD0094B002241
:1056A0001A70084B00225A80064B00225A6041F6BD
:1056B0001D5302E0FFF7A4FF0346184608BD00BFD4
:1056C000122800201028002082B0094B5B6801934B
:1056D000019B5B880333ADF80230064B9A88BDF816
:1056E000023013449AB2034B9A8000BF02B0704755
:1056F000102800200828002082B0184B1B68019356
:10570000174B5B881946174A0B469B000B449B00BE
:10571000134404331B68114A1360114B5B8819460C
:10572000104A0B469B000B449B0013440433019A20
:105730001A600B4B5B881946084B9888094A0B4640
:105740009B000B449B001344083302461A80034B12
:1057500002229A8000BF02B0704700BF08280020D4
:1057600010280020E027002008B51A4B1B78072BD3
:105770002CD801A252F823F099570200CD5702000D
:10578000CD570200A5570200B1570200BD570200D5
:10579000BD570200C5570200FFF73CFE0D4B01222A
:1057A0001A7014E0FFF790FF0A4B02221A700EE005
:1057B000FFF7A2FF074B06221A7008E0054B0722ED
:1057C0001A7004E0034B01221A7000E000BF00BF12
:1057D00008BD00BF1028002000B587B001900091DF
:1057E0000F230593019B002B04D0624B00225A60CB
:1057F0000123BBE0009B1B79032B00F2AB8001A2CD
:1058000052F823F01558020023580200B158020044
:10581000D1580200009B01221A71FFF7B3FA0590DC
:105820009BE000238DF813300023ADF810302BE0FF
:10583000BDF81020504913469B0013449B000B44B5
:105840001B78022B1BD1BDF810204B4913469B003F
:1058500013449B000B4400221A7001238DF813306F
:10586000BDF81020444913469B0013449B000B4491
:1058700004331B681846FFF79DFA059008E0BDF851
:1058800010300133ADF81030BDF81030012BCFD9F6
:105890009DF8133083F00103DBB2002B5CD0354B55
:1058A00001221A70334B00225A6041F61D535DE00D
:1058B000009B00221A71314B02229A802F4B1B68E9
:1058C0001946002301222E4800F05EFE059044E0B8
:1058D000009B00221A71294B1B681846FFF76AFAD1
:1058E0000590284B5B88ADF80E30244B1B68029363
:1058F000BDF80E20204913469B0013449B000B4427
:1059000004331B681D4A1360BDF80E201A49134664
:105910009B0013449B000B440433029A1A60BDF8A9
:105920000E20164B9888144913469B0013449B0085
:105930000B44083302461A80104B02229A80BDF8AD
:105940000E200D4913469B0013449B000B4400227C
:105950001A7002E000BF00E000BF059B002B04D0DE
:10596000044B00225A600E2300E00023184607B0C3
:105970005DF804FBB0270020E02700200828002065
:105980004C2100201028002000B587B00190009124
:10599000009B9B8A1A4613469B0013449B003C4A7B
:1059A00013440493019B002B07D0009BDB8819460E
:1059B0000498FFF7CBF9012365E0049B5A68049B28
:1059C0001B899B0013440393009B9B7D062B4DD8A2
:1059D00001A252F823F000BF1B5A02003F5A0200F6
:1059E000275A0200335A0200F55902004B5A0200AE
:1059F000655A0200274B00225A60009B9B69254A8A
:105A0000136025492348FFF7D7FA034683F00103C3
:105A1000DBB2002B01D00A2335E003990098FFF791
:105A2000EFFB059025E003990098FFF707FC059030
:105A30001FE003990098FFF7CBFC059019E003994C
:105A40000098FFF721FC059013E0009B06229A7551
:105A5000104B5B68104A128811461846FFF73AFC53
:105A6000059006E041F61D53059302E00F230593D0
:105A700000BF059B002B05D0009BDB8819460498CE
:105A8000FFF764F9059B184607B05DF804FB00BFFB
:105A9000E0270020282800203428002000B585B009
:105AA00001900091019B002B01D0012326E0009B77
:105AB0001B79022B19D0022B1BDC002B02D0012BEF
:105AC00008D016E0009B02221A710098FFF72CFC08
:105AD000039012E00098FFF757FC0390039B0A2BFA
:105AE0000AD141F61D53039306E041F61D5303937B
:105AF00003E00F23039300E000BF039B184605B0AB
:105B00005DF804FB00B585B00190019B002B01D02E
:105B100001233BE01F4B1B7B002B03D01D4B0022BE
:105B20001A7301E0FFF720FE1A4B1B78013B062B8E
:105B300028D801A252F823F0555B02005D5B0200F9
:105B4000655B02006D5B0200855B0200755B020015
:105B50007D5B0200FFF798FD039016E0FFF750FD14
:105B6000039012E0FFF722FD03900EE0FFF7E8FC40
:105B700003900AE0FFF760FD039006E0FFF776FD73
:105B8000039002E00F23039300BF039B184605B068
:105B90005DF804FB1028002000B589B001903F4B50
:105BA0001B68002B05D13E48FFF7F2FA03463B4A3B
:105BB00013603A4B1B68002B04D13A4940F27950EC
:105BC00000F0FBFA354B1B681B78013B052B2CD8EA
:105BD00001A252F823F000BFF15B0200015C020059
:105BE000015C0200115C0200115C0200215C0200F9
:105BF0002A4B1B6819460198FFF7EEFD019017E04C
:105C0000264B1B6819460198FFF7BEFE01900FE076
:105C1000224B1B6819460198FFF740FF019007E0EF
:105C20000198FFF76FFF019002E00F23019300BF7F
:105C3000019B002B2BD003AB14220021184607F048
:105C400027FD019B41F61D52934204D1002304938A
:105C50000023019301E0019B0493104B1B6803AAEE
:105C600011461846FEF730FF03AB1846FEF70CFF4F
:105C70000A4B00221A600A48FFF79AFAFFF7A6FAC1
:105C8000034683F00103DBB2002B02D187E700BF9C
:105C900000E000BF00BF09B05DF804FB3828002019
:105CA0003C2800208CD9020008B501210548FEF7E8
:105CB000A3FE0346002B02D10020FFF76DFF00BFBB
:105CC00008BD00BFB827002000B583B00190019B3C
:105CD0005B681846FFF760FF00BF03B05DF804FB88
:105CE00000B58BB00390029101928DF80330002330
:105CF000ADF824300023ADF82630514B1B78DBB2D1
:105D000083F00103DBB2002B01D0022393E0029B5E
:105D1000002B01D105238EE0029B1B884FF6FF72FA
:105D2000934203D0029B5B88002B01D1042382E0C5
:105D3000029B5B681846FEF752FE034683F00103A0
:105D4000DBB2002B01D0032375E0019B002B11D1A6
:105D5000029B9B68ADF826300DF11A02BDF8263083
:105D600011461846FFF73AF80890089B002B09D017
:105D7000089B60E0019B1B88ADF81A30019B5B8893
:105D8000ADF8263005AB1846FFF7DEF90790079B04
:105D9000002B09D1BDF81A20BDF82630114618464F
:105DA000FFF784F8082346E0079B9DF803201A704C
:105DB000079B00229A75BDF81A20079B9A82029BC6
:105DC0005A68079B1A61FFF799F80246079BDA6049
:105DD000029B1A88079B1A81029B5A88079B9A800C
:105DE000079BBDF82620DA809DF80330032B06D1EF
:105DF000079B04229A75039B1A68079B9A61079B6D
:105E0000BDF824205A8105AB1846FFF7B3F9039B70
:105E1000002B0DD0039B00225A60079BDA68039B7E
:105E20001A60039B00229A72064B1A89039B1A81FF
:105E3000FFF73AFF002318460BB05DF804FB00BFE4
:105E4000B02700201028002000B585B001900091F7
:105E5000019B002B02D0009B002B01D1052329E0E0
:105E60000DF10A0319460198FFF7A6F80346002B27
:105E70001FD0019B5B680393BDF80A301A46134696
:105E80009B0013449B0008330C4A13440433012144
:105E90001846FEF7C9FD009B039A1A60019B5B68D8
:105EA00003F10C02009B5A60019B01229A720023AD
:105EB00000E00A23184605B05DF804FBE027002047
:105EC00000B585B00190019B002B01D1052339E07D
:105ED0000DF10A0319460198FFF76EF80346002BEF
:105EE0002DD0BDF80A301946184A0B469B000B44CA
:105EF0009B0013440C331B68002B1DD0019B9B7A25
:105F0000002B19D0BDF80A301A46104913469B00E1
:105F100013449B000B440C331B68591E0B4813465B
:105F20009B0013449B0003440C331960019B002227
:105F30009A720023039304E00623039301E00A23EB
:105F40000393039B184605B05DF804FBE02700208F
:105F500000B585B001900B46ADF80230134B1B78AD
:105F6000DBB283F00103DBB2002B01D0022319E086
:105F7000019B002B01D1052314E00DF10A02BDF8AD
:105F8000023011461846FEF729FF0390039B002BB1
:105F900007D1BDF80A20019B1A80019BBDF80220A1
:105FA0005A80039B184605B05DF804FBB02700201B
:105FB00000B585B001901F4B1B78DBB283F0010365
:105FC000DBB2002B01D002232FE0019B002B01D17B
:105FD00005232AE0019B1B88022B01D9042324E01E
:105FE000019B1B881A4613469B0013449B00124AD0
:105FF00013440293019B5B880233029A52899342B5
:1060000010DA019B5A88019B1B8819461046FEF73F
:106010004DFF019B00221A80019B00225A80002321
:10602000039301E004230393039B184605B05DF836
:1060300004FB00BFB0270020E027002000B583B09C
:10604000019000910223002200990198FFF748FE79
:106050000346184603B05DF804FB00B585B0039015
:1060600002910192019B002B01D1052306E002233E
:10607000019A02990398FFF733FE0346184605B0CC
:106080005DF804FB00B583B001900091019B002BEB
:1060900001D1052306E00323002200990198FFF7B0
:1060A0001FFE0346184603B05DF804FB00B585B03B
:1060B0000346ADF80630184B1B78DBB283F00103C2
:1060C000DBB2002B01D0022322E0BDF806304FF6F0
:1060D000FF72934201D104231AE002AB1846FFF786
:1060E00033F80390039B002B01D1082310E0039B9E
:1060F00005221A70039B01221A71039BBDF806202A
:10610000DA8002AB1846FFF735F8FFF7CDFD002324
:10611000184605B05DF804FBB027002000B585B037
:10612000029201930346ADF80E300B46ADF80C30E9
:1061300003A90DF10E00019B029AFEF797FF03469B
:10614000184605B05DF804FB00B585B00346029122
:106150000192ADF80E300DF10E01019B029A002064
:10616000FEF784FF0346184605B05DF804FB00B552
:1061700085B0034602910192ADF80E300DF10E008C
:10618000019B029A0021FEF771FF0346184605B0F5
:106190005DF804FB82B001900091019B002B02D0BE
:1061A000009B002B01D1052304E0019B1A68009B92
:1061B0001A600023184602B0704700B585B0034648
:1061C0000091ADF80630BDF80630ADF80830009B00
:1061D000039302AB1A46002144F20200FDF732FDA0
:1061E00000BF05B05DF804FB86B001900091019BF3
:1061F00053E8011F8AB2D88902449889824228BF95
:10620000121A1889824202BFBFF32F8F002307E0C2
:10621000C2EA010243E801200028E9D14FF001035E
:106220008DF80F30059002910492029A009B1A603B
:106230009DF80F30DBB2184606B0704784B001906D
:10624000019951E8013FC3EA034341E80132002AC2
:10625000F7D10392029300BF04B0704786B001905B
:106260000091019B53E8021F1FFAA1F2D8888242D5
:1062700002BFBFF32F8F00230DE0D8890244988915
:10628000824228BF121AC1EA024243E802200028D3
:10629000E8D14FF001038DF80F3005900291049280
:1062A000029A009B1A609DF80F30DBB2184606B0C8
:1062B000704784B00190019951E8023FC3EA23433B
:1062C00041E80232002AF7D10392029300BF04B0E2
:1062D000704700B583B001900091009B194601986A
:1062E000FFF782FF0346002B05D0019B1B68009A35
:1062F0001288134400E00023184603B05DF804FB45
:1063000000B583B001900091009B1A88009B5B88C8
:106310009A4204D10198FFF791FF012300E0002386
:10632000184603B05DF804FB00B583B001900091FE
:10633000009B19460198FFF791FF0346002B05D0FB
:10634000019B1B68009A5288134400E00023184602
:1063500003B05DF804FB00B583B001900091009B91
:106360001A88009B5B889A4204D10198FFF7A1FF2D
:10637000012300E00023184603B05DF804FB000091
:1063800000B583B001900B468DF80330019B002BC4
:1063900003D10849AF20FFF710FF019BDA689DF891
:1063A00003300199098A01FB03F31344184603B033
:1063B0005DF804FBF4D9020000B583B001900091B0
:1063C000019B002B03D10849BC20FFF7F6FE009B80
:1063D000019AD2689B1A019A128AB3FBF2F3DBB2DC
:1063E000184603B05DF804FBF4D9020000B585B08F
:1063F0000190019B002B03D11F49EC20FFF7DDFE2C
:106400000023039300238DF80A300DF10A03184688
:10641000FEF798FA019B1B681A68019B5B689A4219
:106420001FD9019B1B681A68013A1A601B681B7808
:1064300019460198FFF7A4FF0390019B9A68019BFE
:106440001B681B68D31A8DF80B30019B1B681B79E6
:106450009DF80B209A4204D9019B1B689DF80B20E4
:106460001A719DF80A301846FEF782FA039B184607
:1064700005B05DF804FB00BFF4D9020010B584B08C
:1064800001900091019B002B04D115494FF48870B5
:10649000FFF793FE009B002B04D1114940F211102D
:1064A000FFF78BFE009B039300238DF80B300DF15B
:1064B0000B031846FEF746FA019B1B681C68621C1A
:1064C0001A6003990198FFF777FF034623709DF840
:1064D0000B301846FEF74CFA00BF04B010BD00BFE9
:1064E000F4D9020010B586B005900491039202938E
:1064F000059B002B02D0039B002B01D10E2340E013
:10650000059B1B68002B01D108233AE0029B002B5E
:106510000AD0059B5B685A68029BB3FBF2F101FB52
:1065200002F29B1A002B01D009232AE0049800F004
:1065300082F8034683F00103DBB2002B14D1039BE6
:10654000184600F078F8034683F00103DBB2002B15
:106550000AD1029A0499059800F053F8034683F093
:106560000103DBB2002B01D010230AE0059B1B685E
:10657000DC68089B0093029B039A04990598A04746
:106580000346184606B010BD10B584B003900291C2
:1065900001920093039B002B01D10E232EE0039B5D
:1065A0001B68002B01D1082328E0019B002B01D19F
:1065B000092323E0039B5B681B685A1E029B134060
:1065C000002B10D1039B5B681B68019A02FB03F34D
:1065D0001A460299039800F014F8034683F0010369
:1065E000DBB2002B01D0102308E0039B1B681C6961
:1065F000009B019A02990398A0470346184604B0ED
:1066000010BD84B0039002910192039BDB68029A53
:106610009A4209D3029A019B13445A1E039B1B6999
:106620009A4201D8012300E0002303F00103DBB20A
:10663000184604B0704782B00190019B03F0030339
:10664000002B0CBF01230023DBB2184602B07047B9
:1066500029DF704700BF184628DF704700BF184683
:1066600000B589B001900091019B1B689B68002BCD
:1066700031D003AB00221A605A609A60DA601A6166
:10668000009B0493019B9B680793019B1B79002B44
:1066900002D0012B0AD017E001238DF80C30019BAA
:1066A0001B690593019B5B6906930DE002238DF83E
:1066B0000C30019BDB684FF4805202FB03F305931F
:1066C000019B5B69069300BF019B1B689B6803AA43
:1066D0001046984700E000BF09B05DF804FB00B524
:1066E00087B00190019B5A69019B9B69D31AB3F54E
:1066F000805F28BF4FF4805305930422059BB3FBB2
:10670000F2F3012B38BF01230593019B1A69019B0A
:106710009B6913440493019BDB681A46019B9B69A8
:1067200013440393059A03990498FFF791FF0346D6
:10673000184607B05DF804FB00B583B00190019BDB
:10674000DA68019B1B6913441846FFF785FF03466F
:10675000184603B05DF804FB08B5034B034918461F
:10676000FFF7F9FD00BF08BD402800206828002081
:1067700008B5084B08491846FFF7D6FD0346074AF7
:106780001360064B1B68002B14BF01230023DBB2F0
:10679000184608BD402800206828002064280020F2
:1067A00000B583B0294B1B7A002B0BD1FFF7E0FF1C
:1067B000034683F00103DBB2002B03D0234B0022FE
:1067C0005A6040E0214B02221A72214B1B681B7950
:1067D000002B02D0012B07D00DE01D4B1B68184683
:1067E000FFF77DFF019009E0194B1B681846FFF782
:1067F000A3FF019002E00323019300BF019B002B44
:1068000003D0019B112B0CD00FE0104B1B7C83F0AD
:106810000103DBB2002B15D00021022000F06CF840
:1068200010E00A4B01221A720DE0094B1B6803218C
:106830001846FFF715FF054B00221A72034B002282
:106840005A6000E000BF03B05DF804FB5028002050
:106850006428002084B001901B4B0022DA60019B69
:106860001B79002B02D0012B19D028E0019B5A691B
:10687000019B9B69D31AB3F5805F28BF4FF4805307
:106880000393019B9A69039B1A44019B9A61019BA4
:106890009A69019B5B699A420ED1012310E0019B2A
:1068A0001B695A1C019B1A61019B1A69019B5B6958
:1068B0009A4203D1012303E000BF00E000BF0023A0
:1068C000184604B0704700BF5028002082B00190E5
:1068D000084BDB680133074AD360064BDB68082BA3
:1068E00004D9044B0022DA60012300E0002318469B
:1068F00002B070475028002000B585B0019000918B
:10690000254B1B7A012B33D0022B41D100238DF86C
:106910000F30019B022B03D0019B032B09D011E008
:106920001E4B1B681846FFF795FF03468DF80F3086
:1069300008E01A4B1B681846FFF7C8FF03468DF89E
:106940000F3000BF9DF80F30002B13D0124B0022E8
:106950001A72124B1A68019B022B01D1002300E02E
:106960000D2319461046FFF77BFEFFF7F5FE01E009
:1069700000BF00E000BF084B5B7C83F00103DBB28B
:10698000002B02D0FFF70CFF03E006F023FD00E030
:1069900000BF05B05DF804FB5028002064280020EB
:1069A00082B0034600918DF80730064B01225A74DD
:1069B000044B1B7A002B0CBF01230023DBB21846CB
:1069C00002B070475028002000B583B00346009104
:1069D0008DF807309DF80730012B03D09DF8073064
:1069E000032B0DD1084B00225A749DF80730012B60
:1069F0000CBF01230023DAB2034B1A74FFF7D0FE59
:106A000000BF03B05DF804FB5028002010B487B02D
:106A100001900091019B009A53E8004F04EB0200A3
:106A200043E8000191F0000FF6D105940490039122
:106A3000049B184607B05DF8044B704710B487B04C
:106A400001900091019B009A53E8004FA4EB0200D3
:106A500043E8000191F0000FF6D1059404900391F2
:106A6000049B184607B05DF8044B704700B58BB027
:106A700001900091019B1B8A043B0793009A079B9E
:106A80001344DA1C079BB2FBF3F38DF81B3001981B
:106A9000FFF7ACFC0590059B002B01D1002338E0EB
:106AA000059B00221A71059B01225A71079B9AB21D
:106AB000059BDA80059B09939DF81B30013B0493ED
:106AC000099B019A1A60002308931DE00198FFF7C3
:106AD0008DFC0390039B002B0ED0059B5B7901334B
:106AE000DAB2059B5A71099B039A1A60039B019ABB
:106AF0001A60039B099304E0059800F00EF8002348
:106B000007E0089B01330893089A049B9A42DDD35F
:106B1000059B18460BB05DF804FB00B58BB00190E7
:106B2000019B0793079B5B798DF81B30019B0893B2
:106B30009DF81B30013B05930023099305E0089B5A
:106B40001B680893099B01330993099A059B9A4294
:106B5000F5D3089B1B680493019B089300230993BA
:106B60000BE0089B1B68039308990498FFF786FCC9
:106B7000039B0893099B013309939DF81B30099AE5
:106B80009A42EED300BF00BF0BB05DF804FB00B526
:106B900085B00190019B0393039B043301211846A8
:106BA000FFF734FF00BF05B05DF804FB00B587B008
:106BB0000190019B0593059B043301211846FFF7C3
:106BC0003DFF0346039303AB0493049B1B78002B08
:106BD00002D10198FFF7A1FF00BF07B05DF804FBE9
:106BE00000B58DB00390029101920093039B069330
:106BF000069BDB880593039B0B93009B1A1D059B4B
:106C0000B2FBF3F30A93009B0433059AB3FBF2F251
:106C1000059901FB02F29B1A0993009A019B1A4401
:106C2000059B1344DA1C059BB2FBF3F38DF813307C
:106C3000069B5B799DF813209A420AD92849BA200D
:106C4000FFF7BBFA05E00B9B1B680B930A9B013B0C
:106C50000A930A9B002BF6D100230893059A099BFF
:106C6000D31A0793079A019B934228BF13460793B1
:106C70002DE09DF83830002B0BD0029A089BD018DD
:106C80000B9A099B13440433079A194606F0D7FC64
:106C90000AE00B9A099B1344181D029A089B13449F
:106CA000079A194606F0CBFC002309930B9B1B683F
:106CB0000B93019A079BD31A0193089A079B1344DD
:106CC0000893059A019B934228BF13460793019BA3
:106CD000002BCED100BF00BF0DB05DF804FB00BF9C
:106CE00048DA020000B587B0059004910392029340
:106CF00000230093029B039A04990598FFF770FF05
:106D000000BF07B05DF804FB00B583B001900091AF
:106D1000019B002B03D110495020FFF74EFA009B36
:106D2000002B03D10C495120FFF747FA019B009A31
:106D30001A60019B1B681A68019B5A60019B5A6884
:106D4000019B1B685B689A4202D1019B00225A603A
:106D500000BF03B05DF804FB98DB020000B583B010
:106D60000190019B002B03D114496320FFF725FA02
:106D7000019B1B68002B03D110496420FFF71DFA0B
:106D8000019B5B68002B14D0019B5B681A46019B3A
:106D90001B689B6813441A46019B5A60019B5A6802
:106DA000019B1B685B689A4204D1019B00225A60D8
:106DB00000E000BF03B05DF804FB00BF98DB0200F9
:106DC00000B585B00190019800F00EF80390039B88
:106DD000002B01D0039B00E0024B184605B05DF884
:106DE00004FB00BF04DC020086B00190164B059343
:106DF000164B04931FE0049A059BD31ADB10DA0F9D
:106E000013445B10DB00059A13440393039B1B6838
:106E10000293029A019B9A4202D9039B04930AE0CF
:106E2000029A019B9A4203D2039B0833059302E026
:106E3000039B5B6804E0059A049B9A42DBD3002322
:106E4000184606B0704700BF20DF020010E00200C5
:106E500082B001900B46ADF80230019B1A68BDF874
:106E60000230012101FA03F31A43019B1A6000BFAB
:106E700002B0704782B001900B46ADF80230019B22
:106E80001A68BDF80230012101FA03F3DB431A400E
:106E9000019B1A6000BF02B0704782B001900B46A0
:106EA000ADF80230BDF80230012202FA03F31A46AF
:106EB000019B1340002B14BF01230023DBB21846B3
:106EC00002B0704700B585B001900023ADF80E30D8
:106ED00010E0BDF80E3019460198FFF7DEFF0346BB
:106EE000002B02D0BDF80E300AE0BDF80E300133A1
:106EF000ADF80E30BDF80E301F2BEAD94FF6FF73F8
:106F0000184605B05DF804FB00B587B00590049104
:106F100011461A460B46ADF80E3013468DF80D306B
:106F2000BDF80E209DF80D30009313460122049900
:106F3000059800F004F800BF07B05DF804FB00B549
:106F400087B0039002910192ADF80230039B002BB1
:106F50003BD0029B002B38D0019B002B35D0002367
:106F600005932FE0059B5B00039A13441B88BDF833
:106F700002209A4223D1002304931BE09DF8203085
:106F8000002B0AD0049B9B00029A1344059A92B2EC
:106F900011461846FFF75CFF09E0049B9B00029A2C
:106FA0001344059A92B211461846FFF763FF049BFB
:106FB00001330493049A019B9A42DFD305E0059BB9
:106FC00001330593059B1F2BCCD907B05DF804FB5B
:106FD00000B587B0039002911346ADF80630039BCD
:106FE000002B19D00023059313E0059B5B00039A47
:106FF00013441B88BDF806209A4207D1059B9BB21B
:1070000019460298FFF749FF034606E0059B013346
:107010000593059B1F2BE8D90023184607B05DF8A0
:1070200004FB00B597B003900291019200230493F2
:10703000029B002B1ED00023159318E0159B9BB2DA
:1070400019460198FFF729FF0346002B0CD0159B2A
:107050005B00029A1A44049B591C049112885B003D
:1070600016A90B4423F8442C159B01331593159B4B
:107070001F2BE3D9039B184604AB4422194606F0A4
:10708000DEFA039817B05DF804FB000082B00346F7
:107090008DF807309DF8073003F01F0206499DF96F
:1070A00007305B09012000FA02F2203341F8232067
:1070B00000BF02B0704700BF00E100E082B0019065
:1070C0004FF08042019BC2F8083300BF02B0704706
:1070D00082B003468DF807309DF8073003F18043F6
:1070E00001221A6000BF02B0704784B00346ADF8B9
:1070F0000630BDF8063003F1804300221A60BDF867
:10710000063003F180431B680393039B00BF04B068
:10711000704782B00346ADF80630BDF8063003F183
:1071200080431B68002B14BF01230023DBB21846E9
:1071300002B0704782B003468DF807309DF80730E3
:107140004FF0804203F00303C2F8183500BF02B0CD
:1071500070474FF08043D3F818341B0C03F0010341
:10716000002B14BF01230023DBB218467047000038
:1071700082B003468DF807300A4A9DF907305B0953
:1071800052F823209DF8073003F01F03012101FA74
:1071900003F31340002B14BF01230023DBB2184676
:1071A00002B0704700E100E008B50020FFF7E0FF03
:1071B000034683F00103DBB2002B03D0072100203C
:1071C00000F09AF900BF08BD08B506F01FF90346A4
:1071D00083F00103DBB2002B03D109498420FEF7C1
:1071E000ECFF0C20FFF774FF00BFFFF7B2FF034670
:1071F000002BFAD1034B00229A7000BF08BD00BFDC
:1072000018E002006C28002000B583B00023019331
:10721000134B1B78002B02D0852301931BE0104BEE
:1072200000229A600E4B00225A600D4B00221A6118
:107230000B4B0022DA60FFF7B7FF06F0E7F80346D2
:1072400083F00103DBB2002B02D00120FFF772FFB5
:10725000034B01221A70019B184603B05DF804FB32
:107260006C28002084B00190019B1B680393039B52
:10727000002B03D0039B1A68019B1A60039B1846DE
:1072800004B0704700B583B0164B1B78002B04D1B7
:1072900015494FF48E70FEF790FF124BDB68002B00
:1072A00004D1114940F21D10FEF787FF00238DF82D
:1072B00007300DF107031846FDF744FB094BDB6867
:1072C000013B084AD360074BDB68002B01D1FFF775
:1072D0007BFF9DF807301846FDF74AFB00BF03B05F
:1072E0005DF804FB6C28002018E0020000B585B0B2
:1072F00003468DF807309DF80730002B02D10C4B68
:10730000039301E00B4B03930398FFF7ABFF02904D
:10731000029B002B06D0029B5B689DF8072010465D
:107320009847F1E700BF00BF05B05DF804FB00BF60
:10733000742800207C28002008B54FF48070FFF7E7
:10734000E8FE0346002B0CD04FF48070FFF7CDFE13
:107350000120FFF7B3FE0E4B01225A700020FFF709
:10736000C5FF4FF48270FFF7D4FE0346002B0CD00C
:107370004FF48270FFF7B9FE0220FFF79FFE044B27
:1073800001229A700120FFF7B1FF00BF08BD00BFC6
:107390006C28002000B583B001900091019B002B68
:1073A00002D10020FFF7A2FF00BF03B05DF804FB8D
:1073B00000B585B0034600918DF807309DF8073081
:1073C000032B29D0032B37DC002B02D0012B04D058
:1073D00032E00020FFF75AFE2FE000238DF80F3037
:1073E0000DF10F031846FDF7ADFA164B1B7883F02D
:1073F0000103DBB2002B01D0FFF706FF114BDB6866
:107400000133104AD3600F4B01229A709DF80F3060
:107410001846FDF7ADFA10E00A4B1B78002B04D19B
:10742000094940F25B20FEF7C8FE0721002000F06A
:1074300063F8FFF727FF00E000BF00BF05B05DF86D
:1074400004FB00BF6C28002018E0020082B0034655
:107450008DF807309DF8073003F01F0205499DF9AC
:1074600007305B09012000FA02F241F8232000BF37
:1074700002B0704700E100E082B003468DF80730AB
:107480009DF8073003F01F0206499DF907305B099C
:10749000012000FA02F2603341F8232000BF02B05D
:1074A000704700BF00E100E082B0034600918DF814
:1074B00007309DF90730002B0CDA009BDAB20C493B
:1074C0009DF8073003F00F03043B5201D2B20B4486
:1074D0001A7609E0009BDAB206499DF9073052019D
:1074E000D2B20B4483F8002300BF02B0704700BF44
:1074F00000ED00E000E100E000B583B003460A467D
:107500008DF8073013468DF806309DF80630012BB4
:1075100003D99DF80630032B0CD99DF80630042BB7
:1075200003D99DF80630072B04D90D494FF492700A
:10753000FEF743FE9DF806209DF9073011461846D8
:10754000FFF7B2FF9DF907301846FFF795FF9DF949
:1075500007301846FFF77AFF00BF03B05DF804FB61
:1075600070E0020000B583B00346ADF80630BDF808
:107570000630184600F026F803461B68012B0CBFA6
:1075800001230023DBB2184603B05DF804FB00B50D
:1075900085B00346ADF80630BDF80630184600F059
:1075A00011F803461A4600231360BDF8063018464A
:1075B00000F008F803461B680393039B00BF05B067
:1075C0005DF804FB82B00346ADF80630BDF8063026
:1075D00003F1804303F5C043184602B07047000032
:1075E00082B00190034BD3F80423019B134018464B
:1075F00002B070470060004082B00190054A019BD4
:1076000003F5A27352F823301B0A03F01F03184638
:1076100002B070470060004082B00190064A019BB2
:1076200003F5A27352F823301B0C03F00303DBB203
:10763000184602B0704700BF0060004000B583B03C
:107640000190019B1B681F2B04D905494FF4E8707A
:10765000FEF7B3FD4FF0A043184603B05DF804FBFE
:10766000CCE0020000B585B001900B468DF80330E8
:1076700001AB1846FFF7E2FF0390019A039B02F566
:10768000E07253F82230019A23F44031039B02F553
:10769000E07243F82210019A039B02F5E07253F85E
:1076A00022309DF8032012041146019A1943039BCE
:1076B00002F5E07243F8221000BF05B05DF804FB4C
:1076C00000B585B0019001AB1846FFF7B7FF0390F6
:1076D000019A039B02F5E07253F822301B0C03F071
:1076E0000303DBB2184605B05DF804FB82B00190DD
:1076F000019BD3F81035184602B0704700B587B02B
:107700000390029101924FF0A0430493039A029BCD
:107710001344012B04D912494FF43A70FEF74DFD82
:10772000039B059311E0059B9B0006AA134453F8A5
:10773000083C1846FFF7DAFF0246019B1A60019BDE
:1077400004330193059B01330593039A029B134471
:10775000059A9A42E7D300BF00BF07B05DF804FB6B
:10776000CCE0020084B001900091009B0393019B48
:10777000DB080293019B03F0070301930122019BA5
:1077800002FA03F30399029A0A4412781340184646
:1077900004B0704784B001900091009B0393019B5B
:1077A000DB080293019B03F007030193039A029BFA
:1077B00013441B785AB20121019B01FA03F35BB217
:1077C000134359B2039A029B1344CAB21A7000BF02
:1077D00004B0704782B00190044A019B13443033D7
:1077E00093F90030184602B0704700BF802800208F
:1077F00082B00190034A019B52F82330184602B030
:10780000704700BF8028002000B595B0002310937A
:10781000002303934FF48073ADF84C30012312938F
:1078200000230F9321E0BDF84C301846FFF79AFE75
:107830000346002B0ED01298FFF7D2FE0346002B12
:1078400008D0BDF84C301846FFF7A1FE109A129BE5
:1078500013431093129B5B001293BDF84C3004331A
:10786000ADF84C300F9B01330F930F9B072BDAD9E8
:107870004FF4BE70FFF776FE0346002B0DD04FF499
:10788000BE70FFF784FE109B43F00043109303ABE0
:107890001A4601210020FFF731FF109BDBB2002BBD
:1078A00029D00123129300230F9321E0129A109BF9
:1078B0001340002B16D00F98FFF79EFE0D900F98E7
:1078C000FFF7AAFE03468DF833300F98FFF790FFBD
:1078D0000B900B9B002B05D09DF833200B9B114682
:1078E0000D989847129B5B0012930F9B01330F93E7
:1078F0000F9B072BDAD9109B002B80F2EE80002320
:107900008DF84F3000230293002311930AE0119B5E
:107910009B0014AA13444FF0FF3243F84C2C119BE8
:1079200001331193119B002BF1D000238DF84F30C0
:1079300000230F9378E06B4A0F9B1344503393F965
:1079400000308DF82B309DF82B3023F0C0030993C5
:10795000644A0F9B1344503393F90030B3F1FF3F57
:107960005FD001AB19460998FFF7FCFE0346002BD8
:1079700057D09DF82B309B098DF823300998FFF7DD
:1079800029FF03461846FFF733FF0790079B002B9C
:1079900003D19DF82330032B43D19DF82330032BD3
:1079A00004D102AB19460998FFF7F4FE0998FFF7D6
:1079B00087FE03468DF81B3003AB19460998FFF785
:1079C000D1FE0590059B002B03D09DF81B30022BA8
:1079D00006D0059B002B24D19DF81B30032B20D112
:1079E0009DF82330032B13D19DF81B30022B01D1BE
:1079F000032300E002238DF813309DF8133019465D
:107A00000998FFF72FFE9DF84F3001338DF84F3066
:107A1000079B002B05D09DF82320079B1146099852
:107A200098470F9B01330F930F9B032B83D99DF82E
:107A30004F30002B4CD001238DF83B306B461A465B
:107A400001210020FFF75AFE0023119314E0119B3F
:107A50009B0014AA134453F8502C119B9B0014A9AB
:107A60000B4453F8443C9A4203D000238DF83B303A
:107A700005E0119B01331193119B002BE7D09DF87A
:107A80003B30002B03D000238DF84F3020E0002343
:107A900011931AE0119B9B0014AA134453F8502C25
:107AA000119B9B0014A90B4443F8442C119B9B0091
:107AB00014AA134453F8482C119B9B0014A90B449F
:107AC00043F84C2C119B01331193119B002BE1D0F7
:107AD0009DF84F30002B7FF428AF00BF15B05DF844
:107AE00004FB00BF8028002084B001900B468DF875
:107AF000033013468DF8023000230393019B032BC0
:107B00003CD89DF80230012B0BD19DF80330012B9E
:107B100004D1019BDBB20E33DBB200E000238DF811
:107B200002309DF80330022B0FD0022B23DC002BF8
:107B300016D0012B1FD11449019A13465B00134440
:107B40000B449DF802201A701AE00F49019A13465F
:107B50005B0013440B4401339DF802201A700FE0C0
:107B60000949019A13465B0013440B4402339DF804
:107B700002201A7004E00723039301E00723039314
:107B8000039B184604B07047D828002000B583B086
:107B9000012200210020FFF7A7FF0190019B002B8D
:107BA00004D0019B072B01D0019B1CE0072202217E
:107BB0000120FFF799FF0190019B002B04D0019B4E
:107BC000072B01D0019B0EE0042202210020FFF7C9
:107BD0008BFF0190019B002B04D0019B072B01D050
:107BE000019B00E00023184603B05DF804FB00B5DC
:107BF00083B0012202210020FFF776FF0190019B54
:107C0000002B04D0019B072B01D0019B1CE0072215
:107C100002210120FFF768FF0190019B002B04D097
:107C2000019B072B01D0019B0EE00A2200210020BE
:107C3000FFF75AFF0190019B002B04D0019B072BFB
:107C400001D0019B00E00023184603B05DF804FB5F
:107C500000B585B001900091019B1B88102B02D0CC
:107C6000112B18D02FE01A4B1B68002B0DD1FFF7FA
:107C70008DFF0390039B002B07D0164B1B68002B36
:107C800003D0144B1B6803989847114B1B680133B2
:107C90000F4A136017E00E4B1B68013B0C4A136040
:107CA0000B4B1B68002B0DD1FFF7A1FF0390039B2B
:107CB000002B07D0074B1B68002B03D0054B1B681C
:107CC0000398984700BF00BF05B05DF804FB00BFF4
:107CD000E8280020E428002000B591B000F08CF8DE
:107CE00000F0A1F800F0EAF800F0BEF8154B002211
:107CF0001A60154B01221A604FF080430122DA67A7
:107D000020BF00BF40BF00BF20BF00BF0D4B1B689E
:107D1000012BF5D14FF0A043D3F80C354FF0A04222
:107D200043F4F013C2F80C35064B00221A604FF0F2
:107D3000A043D3F808354FF0A04243F4F013C2F843
:107D40000835DDE7EC2800200080004082B00346C3
:107D50008DF807309DF8073003F01F0205499DF9A3
:107D600007305B09012000FA02F241F8232000BF2E
:107D700002B0704700E100E082B003468DF80730A2
:107D80009DF8073003F01F0206499DF907305B0993
:107D9000012000FA02F2603341F8232000BF02B054
:107DA000704700BF00E100E082B0034600918DF80B
:107DB00007309DF90730002B0CDA009BDAB20C4932
:107DC0009DF8073003F00F03043B5201D2B20B447D
:107DD0001A7609E0009BDAB206499DF90730520194
:107DE000D2B20B4483F8002300BF02B0704700BF3B
:107DF00000ED00E000E100E04FF080430022C3F816
:107E000000214FF0804301221A6000BF4FF08043F1
:107E1000D3F80031012BF9D14FF080430022C3F891
:107E2000002100BF704782B000230193112301930A
:107E300012E04FF0A0420121019B01FA03F3C2F8C6
:107E400008354FF0A042019B03F5E073032142F88F
:107E50002310019B01330193019B142BE9D900BF2F
:107E600000BF02B07047000008B5124B01225A60F3
:107E7000104B0022C3F804250E4B0522C3F8102531
:107E80000C4B0322C3F808250A4B0122DA60094B88
:107E9000094AC3F84025074B4FF48032C3F8042346
:107EA000044B0122C3F800220820FFF74FFF00BF58
:107EB00008BD00BF0080004020A1070008B54FF0BA
:107EC000A0434022C3F808254FF0A0434022C3F846
:107ED00018251C4B01225A601A4B0122DA60194BFB
:107EE0000022C3F80025174B4FF0FF32C3F80825D6
:107EF000144B4FF0FF32C3F81025124B0622C3F883
:107F00000C25104B4FF0FF32C3F814250D4B0E4AD1
:107F1000C3F824250B4B0022C3F86C25094B8022A3
:107F2000C3F804230220FFF727FF00210220FFF7F8
:107F30003BFF0220FFF70AFF024B0422C3F8002593
:107F400000BF08BD0020004000B0AF030A4BD3F8CB
:107F50004031002B0DD0084BD3F8043303F48033A9
:107F6000002B06D0054B01221A60034B0022C3F8F8
:107F7000402100BF704700BF00800040EC28002077
:107F8000134BD3F81C31002B20D0114BD3F8043302
:107F900003F08003002B19D00D4B0022C3F81C21E5
:107FA0000C4B1B681B78DBB20A2B03D1084B012258
:107FB000DA600BE0074B1B680133064A1360054B80
:107FC0001B681B78DAB2024BC3F81C2500BF704750
:107FD00000200040F028002084B00346ADF80630B1
:107FE0000023039316E00F49039A13469B001344A2
:107FF0009B000B441B88BDF806209A4207D1039AC8
:1080000013469B0013449B00064A134406E0039B5F
:1080100001330393039B002BE5D00023184604B0E3
:10802000704700BFF428002082B001900B46ADF8E5
:108030000230019BBDF802201A80019B00221A72B7
:10804000019B054903F10A020B4603CB1060516006
:1080500000BF02B0704700BF2429002082B0019009
:10806000019B4FF6FF721A8000BF02B0704788B0C4
:108070000390029111461A460B46ADF8063013469E
:10808000ADF80430039B9B881A46BDF806301344B4
:108090000793039B9B881946039B9B88BDF806208A
:1080A000934228BF13469BB2CB1A0693039BDB88EF
:1080B0001A46BDF8043013440593039BDB88194628
:1080C000039BDB88BDF80420934228BF13469BB274
:1080D000CB1A0493029B5A88039B1B889A4205D3B0
:1080E000029B5A88039B5B889A4201D900231CE0BB
:1080F000029B9B881A46069B934205D8029B9B884D
:108100001A46079B934201D200230EE0029BDB88B4
:108110001A46049B934205D8029BDB881A46059BAE
:10812000934201D2002300E00123184608B07047B3
:1081300000B583B00190064B9B69002B03D0044B24
:108140009B690198984700BF03B05DF804FB00BF2E
:108150000829002000B587B003460091ADF806302D
:10816000009B5B7A002B1AD1009B1B7A002B03D15A
:10817000164B5B68059302E0144B9B680593009BCC
:108180005B68BDF8062005991846FCF713FB0490C0
:10819000049B002B16D00498FFF7CAFF12E0009B47
:1081A00000221A72094B5B69002B0BD001238DF85A
:1081B0000C30BDF80630ADF80E30044B5B6903AAF5
:1081C0001046984700BF07B05DF804FB082900205F
:1081D00000B585B00190019BDB7B8DF80F30019BD2
:1081E0009B88ADF80C309DF80F30012B2CD14FF649
:1081F000FF70FFF7F1FE0290029B002B03D10420D9
:10820000FFF796FF21E0BDF80C3019460298FFF702
:108210000BFF029B03F10A00019B03F110014FF6D3
:10822000FF7340F2F312FFF722FF03461A46029B48
:108230005A72074BDB89002B07D1BDF80C3002992D
:108240001846FFF787FF00E000BF05B05DF804FBAC
:108250000829002000B587B00190019B9B88ADF8EC
:108260001630BDF816301846FFF7B6FE0490049B92
:10827000002B0ED0049B5B681846FCF7CDFA0390E8
:10828000039B002B02D00398FFF752FF0498FFF7DF
:10829000E5FE00BF07B05DF804FB000000B587B045
:1082A0000190019B06330593059B1A88194BDB89C6
:1082B0009A422BD1059B5B89022B27D1019B9B887E
:1082C000ADF81230BDF812301846FFF785FE039066
:1082D000039B002B1AD0059B0C33184600F05AFA6A
:1082E0000346002B06D0BDF8123003991846FFF75D
:1082F00031FF0BE0039B5B681846FCF78DFA029098
:10830000029B002B02D00298FFF712FF00BF07B0BC
:108310005DF804FB0829002000B585B00190019BA1
:108320009B88ADF80E30BDF80E301846FFF754FEAE
:108330000290029B002B15D0029B03F10A00019BC7
:1083400003F108014FF6FF7340F2F312FFF78FFEBF
:1083500003461A46029B5A72BDF80E30029918461F
:10836000FFF7F8FE00BF05B05DF804FB00B583B071
:1083700001900091019B1B88502B12D0502B18DCD0
:10838000122B12D0122B14DC102B02D0112B04D084
:108390000FE00198FFF71CFF0CE00198FFF75AFF70
:1083A00008E00198FFF77AFF04E00198FFF7B4FFB7
:1083B00000E000BF00BF03B05DF804FB00B585B06E
:1083C0000346ADF80630164B5B6CDB431846FEF7F0
:1083D00079FD0346ADF80E30BDF80E304FF6FF7252
:1083E000934217D0BDF80E300D4A5B001344BDF820
:1083F00006209A80BDF8062001230A490A48FEF7A4
:1084000083FDBDF80620012308490748FEF77CFDDF
:10841000012300E00023184605B05DF804FB00BF0F
:108420002C290020742900203029002070290020E8
:1084300000B585B00346ADF80E30BDF80E30002211
:1084400000921D2203490448FEF779FD00BF05B0E4
:108450005DF804FB702900203029002000B583B0AE
:108460000346ADF80630BDF8062000230349044852
:10847000FEF74AFD00BF03B05DF804FB742900203D
:108480003029002000B5A5B0144B9B6CDA43134B88
:108490005B6C1A406B4612491846FEF7C2FD12ABE0
:1084A00069464422184605F0CAF8002323930BE0DE
:1084B000239B5B0024AA134433F8443C1846FFF77F
:1084C000B7FF239B01332393129B239A9A42EFD346
:1084D00000BF00BF25B05DF804FB00BF2C290020C1
:1084E0003029002082B003468DF80730074B1B6807
:1084F0009DF80720012101FA02F21340002B14BF5E
:1085000001230023DBB2184602B070472C2900205B
:1085100000B585B001900091019B1B881A2B30D0CB
:108520001A2B4FDC102B02D0112B24D04AE0FFF77E
:10853000A9FF019B9B881846FFF740FF034683F085
:108540000103DBB2002B05D0204AE5210420FBF714
:1085500013FB37E0019BDB7B022B0CBF01230023C5
:108560008DF80F30019B9A889DF80F3018491948F3
:10857000FEF7CAFC26E0019B9B881846FFF76EFFBA
:1085800020E0019B9A88019B1B7AC3F30313DBB2A3
:10859000012B8CBF01230023DBB20F490D48FEF7EE
:1085A000B3FC019B9A88019B1B7AC3F30313DBB2D4
:1085B000022B8CBF01230023DBB208490548FEF7DC
:1085C000A3FC00BF00BF05B05DF804FB68E102003A
:1085D00078290020302900207C29002080290020D3
:1085E00000B585B00346ADF8063000238DF80F3096
:1085F000124B5B6CBDF8062019461148FEF7E8FCEB
:108600000346002B13D00D4BDB6CBDF8062019463A
:108610000B48FEF7DDFC03468DF80E309DF80E305A
:10862000002B01D0022300E001238DF80F309DF8CC
:108630000F30184605B05DF804FB00BF2C29002060
:108640003029002000B583B00346ADF80630064B54
:108650001B6DBDF8062019460448FEF7B9FC034619
:10866000184603B05DF804FB2C29002030290020B7
:1086700000B583B00190054B5A6C019B0449184624
:10868000FEF7CFFC019803B05DF804FB2C29002015
:108690003029002000B583B003460A46ADF8063005
:1086A00013468DF805309DF805301846FFF71AFF80
:1086B0000346002B0ED09DF80530094A14339B0069
:1086C00013449B68BDF8062019460648FEF780FC57
:1086D000034600E00023184603B05DF804FB00BF2A
:1086E0002C2900203029002000B583B00346ADF8C6
:1086F00006300B468DF8053013468DF804309DF892
:1087000005301846FFF7EEFE0346002B0ED09DF80D
:10871000053014339B00074A134403F108019DF808
:108720000430BDF806200448FEF7EEFB00BF03B09E
:108730005DF804FB2C2900203029002000B583B00F
:1087400003468DF807309DF807301846FFF7CAFE3C
:108750000346002B07D09DF80730054A14339B00D1
:1087600013449B6800E00023184603B05DF804FB47
:108770002C29002082B00190019B1B781AB2019B2A
:1087800001331B781B021BB213431BB29BB218466A
:1087900002B0704700B585B001900198FFF7EAFF7D
:1087A0000346ADF80E30BDF80E3003F00103002B88
:1087B00014BF01230023DBB2184605B05DF804FBAB
:1087C00082B00190019B002B14BF01230023DBB278
:1087D000184602B07047000000B585B00190019BBB
:1087E0005B88184600F05AFF03461A46019B9A80A0
:1087F0000023039308E0084A039B52F823300198B2
:108800009847039B01330393039B002BF3D000BFD6
:1088100000BF05B05DF804FB6021002082B001902C
:10882000019B9B79012B0BD1019B1B79012B07D15C
:10883000019B5B8842F60212934201D1012300E0C2
:10884000002303F00103DBB2184602B0704700B505
:1088500089B003460091ADF8063003AB00221A60E0
:108860005A609A60DA601A6107238DF80C30BDF8FF
:108870000630ADF80E30009B059303AB1846FFF7AA
:10888000ABFF00BF09B05DF804FB000000B58BB082
:108890000346ADF8063000238DF8273003AB0022E5
:1088A0001A605A609A60DA601A61BDF80630ADF855
:1088B0000E30BDF806304FF6FF72934242D0BDF83D
:1088C0000630184600F0ABFB0890089B43F202020A
:1088D00093422CD0089B43F20202934220D8089B7B
:1088E000112B11D0089B112B1AD8089B002B03D0F9
:1088F000089B0B2B0CD013E00E238DF80C3003AB30
:108900001846FFF769FF13E001238DF827300FE0C9
:108910000F238DF80C3003AB1846FFF75DFF07E01F
:10892000BDF8063008991846FFF791FF00E000BF38
:10893000064B19789DF82720BDF806301846FFF73A
:10894000D3FE00E000BF0BB05DF804FBE629002079
:1089500000B583B003460A46ADF8063013468DF8DD
:108960000530064B19789DF80520BDF806301846ED
:10897000FFF7BAFE00BF03B05DF804FBE529002055
:1089800000B58BB00346ADF8063000238DF82730D4
:1089900000238DF82630BDF80630184600F0CCFADA
:1089A0000890089B43F20202934233D0089B43F2A3
:1089B0000202934227D8089B862B11D0089B862B56
:1089C00021D8089B002B03D0089B112B04D01AE060
:1089D00001238DF826301EE001238DF827301AE0A0
:1089E00003AB00221A605A609A60DA601A610623AB
:1089F0008DF80C30BDF80630ADF80E3003AB1846DC
:108A0000FFF7EAFE07E0BDF8063008991846FFF7C1
:108A10001EFF00E000BF9DF82720BDF8063011467C
:108A20001846FFF795FF9DF8263018460BB05DF805
:108A300004FB000000B58BB00346ADF806300123FF
:108A40008DF8273000238DF82630BDF80630184603
:108A500000F082FB0890089B43F2014293425AD0F7
:108A6000089B43F2014293425BD8089B112B29D803
:108A7000089B112B55D801A252F823F0D18A02008D
:108A8000238B0200238B0200238B0200238B020026
:108A9000238B0200FD8A0200238B0200FD8A020064
:108AA000238B0200238B0200238B0200238B020006
:108AB000238B0200238B0200238B0200238B0200F6
:108AC000318B0200089B43F20202934232D028E02D
